{
  "_format": "hh-sol-artifact-1",
  "contractName": "Domains",
  "sourceName": "contracts/Domains.sol",
  "abi": [
    {
      "inputs": [
        {
          "internalType": "string",
          "name": "_tld",
          "type": "string"
        }
      ],
      "stateMutability": "payable",
      "type": "constructor"
    },
    {
      "inputs": [],
      "name": "Unauthorized",
      "type": "error"
    },
    {
      "anonymous": false,
      "inputs": [
        {
          "indexed": true,
          "internalType": "address",
          "name": "owner",
          "type": "address"
        },
        {
          "indexed": true,
          "internalType": "address",
          "name": "approved",
          "type": "address"
        },
        {
          "indexed": true,
          "internalType": "uint256",
          "name": "tokenId",
          "type": "uint256"
        }
      ],
      "name": "Approval",
      "type": "event"
    },
    {
      "anonymous": false,
      "inputs": [
        {
          "indexed": true,
          "internalType": "address",
          "name": "owner",
          "type": "address"
        },
        {
          "indexed": true,
          "internalType": "address",
          "name": "operator",
          "type": "address"
        },
        {
          "indexed": false,
          "internalType": "bool",
          "name": "approved",
          "type": "bool"
        }
      ],
      "name": "ApprovalForAll",
      "type": "event"
    },
    {
      "anonymous": false,
      "inputs": [
        {
          "indexed": true,
          "internalType": "address",
          "name": "from",
          "type": "address"
        },
        {
          "indexed": true,
          "internalType": "address",
          "name": "to",
          "type": "address"
        },
        {
          "indexed": true,
          "internalType": "uint256",
          "name": "tokenId",
          "type": "uint256"
        }
      ],
      "name": "Transfer",
      "type": "event"
    },
    {
      "inputs": [
        {
          "internalType": "address",
          "name": "to",
          "type": "address"
        },
        {
          "internalType": "uint256",
          "name": "tokenId",
          "type": "uint256"
        }
      ],
      "name": "approve",
      "outputs": [],
      "stateMutability": "nonpayable",
      "type": "function"
    },
    {
      "inputs": [
        {
          "internalType": "address",
          "name": "owner",
          "type": "address"
        }
      ],
      "name": "balanceOf",
      "outputs": [
        {
          "internalType": "uint256",
          "name": "",
          "type": "uint256"
        }
      ],
      "stateMutability": "view",
      "type": "function"
    },
    {
      "inputs": [
        {
          "internalType": "string",
          "name": "",
          "type": "string"
        }
      ],
      "name": "domains",
      "outputs": [
        {
          "internalType": "address",
          "name": "",
          "type": "address"
        }
      ],
      "stateMutability": "view",
      "type": "function"
    },
    {
      "inputs": [
        {
          "internalType": "string",
          "name": "name",
          "type": "string"
        }
      ],
      "name": "getAddress",
      "outputs": [
        {
          "internalType": "address",
          "name": "",
          "type": "address"
        }
      ],
      "stateMutability": "view",
      "type": "function"
    },
    {
      "inputs": [
        {
          "internalType": "uint256",
          "name": "tokenId",
          "type": "uint256"
        }
      ],
      "name": "getApproved",
      "outputs": [
        {
          "internalType": "address",
          "name": "",
          "type": "address"
        }
      ],
      "stateMutability": "view",
      "type": "function"
    },
    {
      "inputs": [
        {
          "internalType": "address",
          "name": "owner",
          "type": "address"
        },
        {
          "internalType": "address",
          "name": "operator",
          "type": "address"
        }
      ],
      "name": "isApprovedForAll",
      "outputs": [
        {
          "internalType": "bool",
          "name": "",
          "type": "bool"
        }
      ],
      "stateMutability": "view",
      "type": "function"
    },
    {
      "inputs": [],
      "name": "name",
      "outputs": [
        {
          "internalType": "string",
          "name": "",
          "type": "string"
        }
      ],
      "stateMutability": "view",
      "type": "function"
    },
    {
      "inputs": [
        {
          "internalType": "uint256",
          "name": "tokenId",
          "type": "uint256"
        }
      ],
      "name": "ownerOf",
      "outputs": [
        {
          "internalType": "address",
          "name": "",
          "type": "address"
        }
      ],
      "stateMutability": "view",
      "type": "function"
    },
    {
      "inputs": [
        {
          "internalType": "string",
          "name": "name",
          "type": "string"
        }
      ],
      "name": "price",
      "outputs": [
        {
          "internalType": "uint256",
          "name": "",
          "type": "uint256"
        }
      ],
      "stateMutability": "pure",
      "type": "function"
    },
    {
      "inputs": [
        {
          "internalType": "string",
          "name": "",
          "type": "string"
        }
      ],
      "name": "records",
      "outputs": [
        {
          "internalType": "string",
          "name": "",
          "type": "string"
        }
      ],
      "stateMutability": "view",
      "type": "function"
    },
    {
      "inputs": [
        {
          "internalType": "string",
          "name": "name",
          "type": "string"
        }
      ],
      "name": "register",
      "outputs": [],
      "stateMutability": "payable",
      "type": "function"
    },
    {
      "inputs": [
        {
          "internalType": "address",
          "name": "from",
          "type": "address"
        },
        {
          "internalType": "address",
          "name": "to",
          "type": "address"
        },
        {
          "internalType": "uint256",
          "name": "tokenId",
          "type": "uint256"
        }
      ],
      "name": "safeTransferFrom",
      "outputs": [],
      "stateMutability": "nonpayable",
      "type": "function"
    },
    {
      "inputs": [
        {
          "internalType": "address",
          "name": "from",
          "type": "address"
        },
        {
          "internalType": "address",
          "name": "to",
          "type": "address"
        },
        {
          "internalType": "uint256",
          "name": "tokenId",
          "type": "uint256"
        },
        {
          "internalType": "bytes",
          "name": "data",
          "type": "bytes"
        }
      ],
      "name": "safeTransferFrom",
      "outputs": [],
      "stateMutability": "nonpayable",
      "type": "function"
    },
    {
      "inputs": [
        {
          "internalType": "address",
          "name": "operator",
          "type": "address"
        },
        {
          "internalType": "bool",
          "name": "approved",
          "type": "bool"
        }
      ],
      "name": "setApprovalForAll",
      "outputs": [],
      "stateMutability": "nonpayable",
      "type": "function"
    },
    {
      "inputs": [
        {
          "internalType": "string",
          "name": "name",
          "type": "string"
        },
        {
          "internalType": "string",
          "name": "record",
          "type": "string"
        }
      ],
      "name": "setRecord",
      "outputs": [],
      "stateMutability": "nonpayable",
      "type": "function"
    },
    {
      "inputs": [
        {
          "internalType": "bytes4",
          "name": "interfaceId",
          "type": "bytes4"
        }
      ],
      "name": "supportsInterface",
      "outputs": [
        {
          "internalType": "bool",
          "name": "",
          "type": "bool"
        }
      ],
      "stateMutability": "view",
      "type": "function"
    },
    {
      "inputs": [],
      "name": "symbol",
      "outputs": [
        {
          "internalType": "string",
          "name": "",
          "type": "string"
        }
      ],
      "stateMutability": "view",
      "type": "function"
    },
    {
      "inputs": [],
      "name": "tld",
      "outputs": [
        {
          "internalType": "string",
          "name": "",
          "type": "string"
        }
      ],
      "stateMutability": "view",
      "type": "function"
    },
    {
      "inputs": [
        {
          "internalType": "uint256",
          "name": "tokenId",
          "type": "uint256"
        }
      ],
      "name": "tokenURI",
      "outputs": [
        {
          "internalType": "string",
          "name": "",
          "type": "string"
        }
      ],
      "stateMutability": "view",
      "type": "function"
    },
    {
      "inputs": [
        {
          "internalType": "address",
          "name": "from",
          "type": "address"
        },
        {
          "internalType": "address",
          "name": "to",
          "type": "address"
        },
        {
          "internalType": "uint256",
          "name": "tokenId",
          "type": "uint256"
        }
      ],
      "name": "transferFrom",
      "outputs": [],
      "stateMutability": "nonpayable",
      "type": "function"
    }
  ],
  "bytecode": "0x6080604052604051806108a0016040528061086b8152602001620048bf61086b913960099081620000319190620004de565b506040518060400160405280600d81526020017f3c2f746578743e3c2f7376673e00000000000000000000000000000000000000815250600a9081620000789190620004de565b506040516200512a3803806200512a83398181016040528101906200009e919062000729565b6040518060400160405280601181526020017f4f637479204e616d6520536572766963650000000000000000000000000000008152506040518060400160405280600381526020017f4f4e53000000000000000000000000000000000000000000000000000000000081525081600090816200011b9190620004de565b5080600190816200012d9190620004de565b5050508060089081620001419190620004de565b506200018e6040518060400160405280601881526020017f2573206e616d652073657276696365206465706c6f7965640000000000000000815250826200019560201b620013ba1760201c565b5062000807565b620002378282604051602401620001ae929190620007cc565b6040516020818303038152906040527f4b5c4277000000000000000000000000000000000000000000000000000000007bffffffffffffffffffffffffffffffffffffffffffffffffffffffff19166020820180517bffffffffffffffffffffffffffffffffffffffffffffffffffffffff83818316178352505050506200023b60201b60201c565b5050565b60008151905060006a636f6e736f6c652e6c6f679050602083016000808483855afa5050505050565b600081519050919050565b7f4e487b7100000000000000000000000000000000000000000000000000000000600052604160045260246000fd5b7f4e487b7100000000000000000000000000000000000000000000000000000000600052602260045260246000fd5b60006002820490506001821680620002e657607f821691505b602082108103620002fc57620002fb6200029e565b5b50919050565b60008190508160005260206000209050919050565b60006020601f8301049050919050565b600082821b905092915050565b600060088302620003667fffffffffffffffffffffffffffffffffffffffffffffffffffffffffffffffff8262000327565b62000372868362000327565b95508019841693508086168417925050509392505050565b6000819050919050565b6000819050919050565b6000620003bf620003b9620003b3846200038a565b62000394565b6200038a565b9050919050565b6000819050919050565b620003db836200039e565b620003f3620003ea82620003c6565b84845462000334565b825550505050565b600090565b6200040a620003fb565b62000417818484620003d0565b505050565b5b818110156200043f576200043360008262000400565b6001810190506200041d565b5050565b601f8211156200048e57620004588162000302565b620004638462000317565b8101602085101562000473578190505b6200048b620004828562000317565b8301826200041c565b50505b505050565b600082821c905092915050565b6000620004b36000198460080262000493565b1980831691505092915050565b6000620004ce8383620004a0565b9150826002028217905092915050565b620004e98262000264565b67ffffffffffffffff8111156200050557620005046200026f565b5b620005118254620002cd565b6200051e82828562000443565b600060209050601f83116001811462000556576000841562000541578287015190505b6200054d8582620004c0565b865550620005bd565b601f198416620005668662000302565b60005b82811015620005905784890151825560018201915060208501945060208101905062000569565b86831015620005b05784890151620005ac601f891682620004a0565b8355505b6001600288020188555050505b505050505050565b6000604051905090565b600080fd5b600080fd5b600080fd5b600080fd5b6000601f19601f8301169050919050565b620005ff82620005e3565b810181811067ffffffffffffffff821117156200062157620006206200026f565b5b80604052505050565b600062000636620005c5565b9050620006448282620005f4565b919050565b600067ffffffffffffffff8211156200066757620006666200026f565b5b6200067282620005e3565b9050602081019050919050565b60005b838110156200069f57808201518184015260208101905062000682565b60008484015250505050565b6000620006c2620006bc8462000649565b6200062a565b905082815260208101848484011115620006e157620006e0620005de565b5b620006ee8482856200067f565b509392505050565b600082601f8301126200070e576200070d620005d9565b5b815162000720848260208601620006ab565b91505092915050565b600060208284031215620007425762000741620005cf565b5b600082015167ffffffffffffffff811115620007635762000762620005d4565b5b6200077184828501620006f6565b91505092915050565b600082825260208201905092915050565b6000620007988262000264565b620007a481856200077a565b9350620007b68185602086016200067f565b620007c181620005e3565b840191505092915050565b60006040820190508181036000830152620007e881856200078b565b90508181036020830152620007fe81846200078b565b90509392505050565b6140a880620008176000396000f3fe60806040526004361061011f5760003560e01c806370a08231116100a0578063c1880a9811610064578063c1880a981461041d578063c87b56dd14610446578063e985e9c514610483578063f2c298be146104c0578063fe2c6198146104dc5761011f565b806370a082311461032657806395d89b4114610363578063a22cb4651461038e578063b88d4fde146103b7578063bf40fac1146103e05761011f565b806326449235116100e7578063264492351461021b5780632d5514321461025857806342842e0e14610283578063541e771d146102ac5780636352211e146102e95761011f565b806301ffc9a71461012457806306fdde0314610161578063081812fc1461018c578063095ea7b3146101c957806323b872dd146101f2575b600080fd5b34801561013057600080fd5b5061014b60048036038101906101469190612659565b610519565b60405161015891906126a1565b60405180910390f35b34801561016d57600080fd5b506101766105fb565b604051610183919061274c565b60405180910390f35b34801561019857600080fd5b506101b360048036038101906101ae91906127a4565b61068d565b6040516101c09190612812565b60405180910390f35b3480156101d557600080fd5b506101f060048036038101906101eb9190612859565b6106d3565b005b3480156101fe57600080fd5b5061021960048036038101906102149190612899565b6107ea565b005b34801561022757600080fd5b50610242600480360381019061023d9190612a21565b61084a565b60405161024f9190612812565b60405180910390f35b34801561026457600080fd5b5061026d610893565b60405161027a919061274c565b60405180910390f35b34801561028f57600080fd5b506102aa60048036038101906102a59190612899565b610921565b005b3480156102b857600080fd5b506102d360048036038101906102ce9190612a21565b610941565b6040516102e0919061274c565b60405180910390f35b3480156102f557600080fd5b50610310600480360381019061030b91906127a4565b6109f7565b60405161031d9190612812565b60405180910390f35b34801561033257600080fd5b5061034d60048036038101906103489190612a6a565b610aa8565b60405161035a9190612aa6565b60405180910390f35b34801561036f57600080fd5b50610378610b5f565b604051610385919061274c565b60405180910390f35b34801561039a57600080fd5b506103b560048036038101906103b09190612aed565b610bf1565b005b3480156103c357600080fd5b506103de60048036038101906103d99190612bce565b610c07565b005b3480156103ec57600080fd5b5061040760048036038101906104029190612cb1565b610c69565b6040516104149190612812565b60405180910390f35b34801561042957600080fd5b50610444600480360381019061043f9190612cfe565b610cb4565b005b34801561045257600080fd5b5061046d600480360381019061046891906127a4565b610d8f565b60405161047a919061274c565b60405180910390f35b34801561048f57600080fd5b506104aa60048036038101906104a59190612d7f565b610ea1565b6040516104b791906126a1565b60405180910390f35b6104da60048036038101906104d59190612cb1565b610f35565b005b3480156104e857600080fd5b5061050360048036038101906104fe9190612cb1565b611316565b6040516105109190612aa6565b60405180910390f35b60007f80ac58cd000000000000000000000000000000000000000000000000000000007bffffffffffffffffffffffffffffffffffffffffffffffffffffffff1916827bffffffffffffffffffffffffffffffffffffffffffffffffffffffff191614806105e457507f5b5e139f000000000000000000000000000000000000000000000000000000007bffffffffffffffffffffffffffffffffffffffffffffffffffffffff1916827bffffffffffffffffffffffffffffffffffffffffffffffffffffffff1916145b806105f457506105f382611456565b5b9050919050565b60606000805461060a90612dee565b80601f016020809104026020016040519081016040528092919081815260200182805461063690612dee565b80156106835780601f1061065857610100808354040283529160200191610683565b820191906000526020600020905b81548152906001019060200180831161066657829003601f168201915b5050505050905090565b6000610698826114c0565b6004600083815260200190815260200160002060009054906101000a900473ffffffffffffffffffffffffffffffffffffffff169050919050565b60006106de826109f7565b90508073ffffffffffffffffffffffffffffffffffffffff168373ffffffffffffffffffffffffffffffffffffffff160361074e576040517f08c379a000000000000000000000000000000000000000000000000000000000815260040161074590612e91565b60405180910390fd5b8073ffffffffffffffffffffffffffffffffffffffff1661076d61150b565b73ffffffffffffffffffffffffffffffffffffffff16148061079c575061079b8161079661150b565b610ea1565b5b6107db576040517f08c379a00000000000000000000000000000000000000000000000000000000081526004016107d290612f23565b60405180910390fd5b6107e58383611513565b505050565b6107fb6107f561150b565b826115cc565b61083a576040517f08c379a000000000000000000000000000000000000000000000000000000000815260040161083190612fb5565b60405180910390fd5b610845838383611661565b505050565b600b818051602081018201805184825260208301602085012081835280955050505050506000915054906101000a900473ffffffffffffffffffffffffffffffffffffffff1681565b600880546108a090612dee565b80601f01602080910402602001604051908101604052809291908181526020018280546108cc90612dee565b80156109195780601f106108ee57610100808354040283529160200191610919565b820191906000526020600020905b8154815290600101906020018083116108fc57829003601f168201915b505050505081565b61093c83838360405180602001604052806000815250610c07565b505050565b600c81805160208101820180518482526020830160208501208183528095505050505050600091509050805461097690612dee565b80601f01602080910402602001604051908101604052809291908181526020018280546109a290612dee565b80156109ef5780601f106109c4576101008083540402835291602001916109ef565b820191906000526020600020905b8154815290600101906020018083116109d257829003601f168201915b505050505081565b6000806002600084815260200190815260200160002060009054906101000a900473ffffffffffffffffffffffffffffffffffffffff169050600073ffffffffffffffffffffffffffffffffffffffff168173ffffffffffffffffffffffffffffffffffffffff1603610a9f576040517f08c379a0000000000000000000000000000000000000000000000000000000008152600401610a9690613021565b60405180910390fd5b80915050919050565b60008073ffffffffffffffffffffffffffffffffffffffff168273ffffffffffffffffffffffffffffffffffffffff1603610b18576040517f08c379a0000000000000000000000000000000000000000000000000000000008152600401610b0f906130b3565b60405180910390fd5b600360008373ffffffffffffffffffffffffffffffffffffffff1673ffffffffffffffffffffffffffffffffffffffff168152602001908152602001600020549050919050565b606060018054610b6e90612dee565b80601f0160208091040260200160405190810160405280929190818152602001828054610b9a90612dee565b8015610be75780601f10610bbc57610100808354040283529160200191610be7565b820191906000526020600020905b815481529060010190602001808311610bca57829003601f168201915b5050505050905090565b610c03610bfc61150b565b83836118c7565b5050565b610c18610c1261150b565b836115cc565b610c57576040517f08c379a0000000000000000000000000000000000000000000000000000000008152600401610c4e90612fb5565b60405180910390fd5b610c6384848484611a33565b50505050565b6000600b8383604051610c7d929190613103565b908152602001604051809103902060009054906101000a900473ffffffffffffffffffffffffffffffffffffffff16905092915050565b600b8484604051610cc6929190613103565b908152602001604051809103902060009054906101000a900473ffffffffffffffffffffffffffffffffffffffff1673ffffffffffffffffffffffffffffffffffffffff163373ffffffffffffffffffffffffffffffffffffffff1614610d59576040517f82b4290000000000000000000000000000000000000000000000000000000000815260040160405180910390fd5b8181600c8686604051610d6d929190613103565b90815260200160405180910390209182610d889291906132d3565b5050505050565b6060610d9a826114c0565b6000600660008481526020019081526020016000208054610dba90612dee565b80601f0160208091040260200160405190810160405280929190818152602001828054610de690612dee565b8015610e335780601f10610e0857610100808354040283529160200191610e33565b820191906000526020600020905b815481529060010190602001808311610e1657829003601f168201915b505050505090506000610e44611a8f565b90506000815103610e59578192505050610e9c565b600082511115610e8e578082604051602001610e769291906133d4565b60405160208183030381529060405292505050610e9c565b610e9784611aa6565b925050505b919050565b6000600560008473ffffffffffffffffffffffffffffffffffffffff1673ffffffffffffffffffffffffffffffffffffffff16815260200190815260200160002060008373ffffffffffffffffffffffffffffffffffffffff1673ffffffffffffffffffffffffffffffffffffffff16815260200190815260200160002060009054906101000a900460ff16905092915050565b600073ffffffffffffffffffffffffffffffffffffffff16600b8383604051610f5f929190613103565b908152602001604051809103902060009054906101000a900473ffffffffffffffffffffffffffffffffffffffff1673ffffffffffffffffffffffffffffffffffffffff1614610fae57600080fd5b6000610fba8383611316565b905080341015610fff576040517f08c379a0000000000000000000000000000000000000000000000000000000008152600401610ff690613444565b60405180910390fd5b60008383600860405160200161101793929190613533565b60405160208183030381529060405290506000600982600a60405160200161104193929190613564565b6040516020818303038152906040529050600061105e6007611b0e565b905060006110af87878080601f016020809104026020016040519081016040528093929190818152602001838380828437600081840152601f19601f82011690508083019250505050505050611b1c565b905060006110bc82611cd1565b90506111b0604051806060016040528060318152602001613fc96031913989898080601f016020809104026020016040519081016040528093929190818152602001838380828437600081840152601f19601f820116905080830192505050505050506008805461112c90612dee565b80601f016020809104026020016040519081016040528092919081815260200182805461115890612dee565b80156111a55780601f1061117a576101008083540402835291602001916111a5565b820191906000526020600020905b81548152906001019060200180831161118857829003601f168201915b505050505086611e31565b60006111e6866111bf87611ed3565b846040516020016111d293929190613711565b604051602081830303815290604052611ed3565b90506000816040516020016111fb91906137ba565b604051602081830303815290604052905061122d604051806060016040528060398152602001613f9060399139612036565b61126c6040518060400160405280600e81526020017f46696e616c20746f6b656e555249000000000000000000000000000000000000815250826113ba565b61128d604051806060016040528060398152602001613ffa60399139612036565b61129733866120cf565b6112a185826120ed565b33600b8b8b6040516112b4929190613103565b908152602001604051809103902060006101000a81548173ffffffffffffffffffffffffffffffffffffffff021916908373ffffffffffffffffffffffffffffffffffffffff16021790555061130a600761215a565b50505050505050505050565b60008061136684848080601f016020809104026020016040519081016040528093929190818152602001838380828437600081840152601f19601f82011690508083019250505050505050611b1c565b90506000811161137557600080fd5b6003810361138e576706f05b59d3b200009150506113b4565b600481036113a757670429d069189e00009150506113b4565b67016345785d8a00009150505b92915050565b61145282826040516024016113d09291906137dc565b6040516020818303038152906040527f4b5c4277000000000000000000000000000000000000000000000000000000007bffffffffffffffffffffffffffffffffffffffffffffffffffffffff19166020820180517bffffffffffffffffffffffffffffffffffffffffffffffffffffffff8381831617835250505050612170565b5050565b60007f01ffc9a7000000000000000000000000000000000000000000000000000000007bffffffffffffffffffffffffffffffffffffffffffffffffffffffff1916827bffffffffffffffffffffffffffffffffffffffffffffffffffffffff1916149050919050565b6114c981612199565b611508576040517f08c379a00000000000000000000000000000000000000000000000000000000081526004016114ff90613021565b60405180910390fd5b50565b600033905090565b816004600083815260200190815260200160002060006101000a81548173ffffffffffffffffffffffffffffffffffffffff021916908373ffffffffffffffffffffffffffffffffffffffff160217905550808273ffffffffffffffffffffffffffffffffffffffff16611586836109f7565b73ffffffffffffffffffffffffffffffffffffffff167f8c5be1e5ebec7d5bd14f71427d1e84f3dd0314c0f7b2291e5b200ac8c7c3b92560405160405180910390a45050565b6000806115d8836109f7565b90508073ffffffffffffffffffffffffffffffffffffffff168473ffffffffffffffffffffffffffffffffffffffff16148061161a57506116198185610ea1565b5b8061165857508373ffffffffffffffffffffffffffffffffffffffff166116408461068d565b73ffffffffffffffffffffffffffffffffffffffff16145b91505092915050565b8273ffffffffffffffffffffffffffffffffffffffff16611681826109f7565b73ffffffffffffffffffffffffffffffffffffffff16146116d7576040517f08c379a00000000000000000000000000000000000000000000000000000000081526004016116ce90613885565b60405180910390fd5b600073ffffffffffffffffffffffffffffffffffffffff168273ffffffffffffffffffffffffffffffffffffffff1603611746576040517f08c379a000000000000000000000000000000000000000000000000000000000815260040161173d90613917565b60405180910390fd5b611751838383612205565b61175c600082611513565b6001600360008573ffffffffffffffffffffffffffffffffffffffff1673ffffffffffffffffffffffffffffffffffffffff16815260200190815260200160002060008282546117ac9190613966565b925050819055506001600360008473ffffffffffffffffffffffffffffffffffffffff1673ffffffffffffffffffffffffffffffffffffffff1681526020019081526020016000206000828254611803919061399a565b92505081905550816002600083815260200190815260200160002060006101000a81548173ffffffffffffffffffffffffffffffffffffffff021916908373ffffffffffffffffffffffffffffffffffffffff160217905550808273ffffffffffffffffffffffffffffffffffffffff168473ffffffffffffffffffffffffffffffffffffffff167fddf252ad1be2c89b69c2b068fc378daa952ba7f163c4a11628f55a4df523b3ef60405160405180910390a46118c283838361220a565b505050565b8173ffffffffffffffffffffffffffffffffffffffff168373ffffffffffffffffffffffffffffffffffffffff1603611935576040517f08c379a000000000000000000000000000000000000000000000000000000000815260040161192c90613a1a565b60405180910390fd5b80600560008573ffffffffffffffffffffffffffffffffffffffff1673ffffffffffffffffffffffffffffffffffffffff16815260200190815260200160002060008473ffffffffffffffffffffffffffffffffffffffff1673ffffffffffffffffffffffffffffffffffffffff16815260200190815260200160002060006101000a81548160ff0219169083151502179055508173ffffffffffffffffffffffffffffffffffffffff168373ffffffffffffffffffffffffffffffffffffffff167f17307eab39ab6107e8899845ad3d59bd9653f200f220920489ca2b5937696c3183604051611a2691906126a1565b60405180910390a3505050565b611a3e848484611661565b611a4a8484848461220f565b611a89576040517f08c379a0000000000000000000000000000000000000000000000000000000008152600401611a8090613aac565b60405180910390fd5b50505050565b606060405180602001604052806000815250905090565b6060611ab1826114c0565b6000611abb611a8f565b90506000815111611adb5760405180602001604052806000815250611b06565b80611ae584611cd1565b604051602001611af69291906133d4565b6040516020818303038152906040525b915050919050565b600081600001549050919050565b60008060008084519050600092505b80821015611cc6576000858381518110611b4857611b47613acc565b5b602001015160f81c60f81b9050608060f81b817effffffffffffffffffffffffffffffffffffffffffffffffffffffffffffff19161015611b9757600183611b90919061399a565b9250611cb2565b60e060f81b817effffffffffffffffffffffffffffffffffffffffffffffffffffffffffffff19161015611bd957600283611bd2919061399a565b9250611cb1565b60f060f81b817effffffffffffffffffffffffffffffffffffffffffffffffffffffffffffff19161015611c1b57600383611c14919061399a565b9250611cb0565b60f8801b817effffffffffffffffffffffffffffffffffffffffffffffffffffffffffffff19161015611c5c57600483611c55919061399a565b9250611caf565b60fc60f81b817effffffffffffffffffffffffffffffffffffffffffffffffffffffffffffff19161015611c9e57600583611c97919061399a565b9250611cae565b600683611cab919061399a565b92505b5b5b5b5b508280611cbe90613afb565b935050611b2b565b829350505050919050565b606060008203611d18576040518060400160405280600181526020017f30000000000000000000000000000000000000000000000000000000000000008152509050611e2c565b600082905060005b60008214611d4a578080611d3390613afb565b915050600a82611d439190613b72565b9150611d20565b60008167ffffffffffffffff811115611d6657611d656128f6565b5b6040519080825280601f01601f191660200182016040528015611d985781602001600182028036833780820191505090505b5090505b60008514611e2557600182611db19190613966565b9150600a85611dc09190613ba3565b6030611dcc919061399a565b60f81b818381518110611de257611de1613acc565b5b60200101907effffffffffffffffffffffffffffffffffffffffffffffffffffffffffffff1916908160001a905350600a85611e1e9190613b72565b9450611d9c565b8093505050505b919050565b611ecd84848484604051602401611e4b9493929190613bd4565b6040516020818303038152906040527f8eafb02b000000000000000000000000000000000000000000000000000000007bffffffffffffffffffffffffffffffffffffffffffffffffffffffff19166020820180517bffffffffffffffffffffffffffffffffffffffffffffffffffffffff8381831617835250505050612170565b50505050565b60606000825103611ef557604051806020016040528060008152509050612031565b60006040518060600160405280604081526020016140336040913990506000600360028551611f24919061399a565b611f2e9190613b72565b6004611f3a9190613c2e565b67ffffffffffffffff811115611f5357611f526128f6565b5b6040519080825280601f01601f191660200182016040528015611f855781602001600182028036833780820191505090505b509050600182016020820185865187015b80821015611ff1576003820191508151603f8160121c168501518453600184019350603f81600c1c168501518453600184019350603f8160061c168501518453600184019350603f8116850151845360018401935050611f96565b505060038651066001811461200d576002811461202057612028565b603d6001830353603d6002830353612028565b603d60018303535b50505080925050505b919050565b6120cc8160405160240161204a919061274c565b6040516020818303038152906040527f41304fac000000000000000000000000000000000000000000000000000000007bffffffffffffffffffffffffffffffffffffffffffffffffffffffff19166020820180517bffffffffffffffffffffffffffffffffffffffffffffffffffffffff8381831617835250505050612170565b50565b6120e9828260405180602001604052806000815250612396565b5050565b6120f682612199565b612135576040517f08c379a000000000000000000000000000000000000000000000000000000000815260040161212c90613ce2565b60405180910390fd5b806006600084815260200190815260200160002090816121559190613d02565b505050565b6001816000016000828254019250508190555050565b60008151905060006a636f6e736f6c652e6c6f679050602083016000808483855afa5050505050565b60008073ffffffffffffffffffffffffffffffffffffffff166002600084815260200190815260200160002060009054906101000a900473ffffffffffffffffffffffffffffffffffffffff1673ffffffffffffffffffffffffffffffffffffffff1614159050919050565b505050565b505050565b60006122308473ffffffffffffffffffffffffffffffffffffffff166123f1565b15612389578373ffffffffffffffffffffffffffffffffffffffff1663150b7a0261225961150b565b8786866040518563ffffffff1660e01b815260040161227b9493929190613e29565b6020604051808303816000875af19250505080156122b757506040513d601f19601f820116820180604052508101906122b49190613e8a565b60015b612339573d80600081146122e7576040519150601f19603f3d011682016040523d82523d6000602084013e6122ec565b606091505b506000815103612331576040517f08c379a000000000000000000000000000000000000000000000000000000000815260040161232890613aac565b60405180910390fd5b805181602001fd5b63150b7a0260e01b7bffffffffffffffffffffffffffffffffffffffffffffffffffffffff1916817bffffffffffffffffffffffffffffffffffffffffffffffffffffffff19161491505061238e565b600190505b949350505050565b6123a08383612414565b6123ad600084848461220f565b6123ec576040517f08c379a00000000000000000000000000000000000000000000000000000000081526004016123e390613aac565b60405180910390fd5b505050565b6000808273ffffffffffffffffffffffffffffffffffffffff163b119050919050565b600073ffffffffffffffffffffffffffffffffffffffff168273ffffffffffffffffffffffffffffffffffffffff1603612483576040517f08c379a000000000000000000000000000000000000000000000000000000000815260040161247a90613f03565b60405180910390fd5b61248c81612199565b156124cc576040517f08c379a00000000000000000000000000000000000000000000000000000000081526004016124c390613f6f565b60405180910390fd5b6124d860008383612205565b6001600360008473ffffffffffffffffffffffffffffffffffffffff1673ffffffffffffffffffffffffffffffffffffffff1681526020019081526020016000206000828254612528919061399a565b92505081905550816002600083815260200190815260200160002060006101000a81548173ffffffffffffffffffffffffffffffffffffffff021916908373ffffffffffffffffffffffffffffffffffffffff160217905550808273ffffffffffffffffffffffffffffffffffffffff16600073ffffffffffffffffffffffffffffffffffffffff167fddf252ad1be2c89b69c2b068fc378daa952ba7f163c4a11628f55a4df523b3ef60405160405180910390a46125e96000838361220a565b5050565b6000604051905090565b600080fd5b600080fd5b60007fffffffff0000000000000000000000000000000000000000000000000000000082169050919050565b61263681612601565b811461264157600080fd5b50565b6000813590506126538161262d565b92915050565b60006020828403121561266f5761266e6125f7565b5b600061267d84828501612644565b91505092915050565b60008115159050919050565b61269b81612686565b82525050565b60006020820190506126b66000830184612692565b92915050565b600081519050919050565b600082825260208201905092915050565b60005b838110156126f65780820151818401526020810190506126db565b60008484015250505050565b6000601f19601f8301169050919050565b600061271e826126bc565b61272881856126c7565b93506127388185602086016126d8565b61274181612702565b840191505092915050565b600060208201905081810360008301526127668184612713565b905092915050565b6000819050919050565b6127818161276e565b811461278c57600080fd5b50565b60008135905061279e81612778565b92915050565b6000602082840312156127ba576127b96125f7565b5b60006127c88482850161278f565b91505092915050565b600073ffffffffffffffffffffffffffffffffffffffff82169050919050565b60006127fc826127d1565b9050919050565b61280c816127f1565b82525050565b60006020820190506128276000830184612803565b92915050565b612836816127f1565b811461284157600080fd5b50565b6000813590506128538161282d565b92915050565b600080604083850312156128705761286f6125f7565b5b600061287e85828601612844565b925050602061288f8582860161278f565b9150509250929050565b6000806000606084860312156128b2576128b16125f7565b5b60006128c086828701612844565b93505060206128d186828701612844565b92505060406128e28682870161278f565b9150509250925092565b600080fd5b600080fd5b7f4e487b7100000000000000000000000000000000000000000000000000000000600052604160045260246000fd5b61292e82612702565b810181811067ffffffffffffffff8211171561294d5761294c6128f6565b5b80604052505050565b60006129606125ed565b905061296c8282612925565b919050565b600067ffffffffffffffff82111561298c5761298b6128f6565b5b61299582612702565b9050602081019050919050565b82818337600083830152505050565b60006129c46129bf84612971565b612956565b9050828152602081018484840111156129e0576129df6128f1565b5b6129eb8482856129a2565b509392505050565b600082601f830112612a0857612a076128ec565b5b8135612a188482602086016129b1565b91505092915050565b600060208284031215612a3757612a366125f7565b5b600082013567ffffffffffffffff811115612a5557612a546125fc565b5b612a61848285016129f3565b91505092915050565b600060208284031215612a8057612a7f6125f7565b5b6000612a8e84828501612844565b91505092915050565b612aa08161276e565b82525050565b6000602082019050612abb6000830184612a97565b92915050565b612aca81612686565b8114612ad557600080fd5b50565b600081359050612ae781612ac1565b92915050565b60008060408385031215612b0457612b036125f7565b5b6000612b1285828601612844565b9250506020612b2385828601612ad8565b9150509250929050565b600067ffffffffffffffff821115612b4857612b476128f6565b5b612b5182612702565b9050602081019050919050565b6000612b71612b6c84612b2d565b612956565b905082815260208101848484011115612b8d57612b8c6128f1565b5b612b988482856129a2565b509392505050565b600082601f830112612bb557612bb46128ec565b5b8135612bc5848260208601612b5e565b91505092915050565b60008060008060808587031215612be857612be76125f7565b5b6000612bf687828801612844565b9450506020612c0787828801612844565b9350506040612c188782880161278f565b925050606085013567ffffffffffffffff811115612c3957612c386125fc565b5b612c4587828801612ba0565b91505092959194509250565b600080fd5b600080fd5b60008083601f840112612c7157612c706128ec565b5b8235905067ffffffffffffffff811115612c8e57612c8d612c51565b5b602083019150836001820283011115612caa57612ca9612c56565b5b9250929050565b60008060208385031215612cc857612cc76125f7565b5b600083013567ffffffffffffffff811115612ce657612ce56125fc565b5b612cf285828601612c5b565b92509250509250929050565b60008060008060408587031215612d1857612d176125f7565b5b600085013567ffffffffffffffff811115612d3657612d356125fc565b5b612d4287828801612c5b565b9450945050602085013567ffffffffffffffff811115612d6557612d646125fc565b5b612d7187828801612c5b565b925092505092959194509250565b60008060408385031215612d9657612d956125f7565b5b6000612da485828601612844565b9250506020612db585828601612844565b9150509250929050565b7f4e487b7100000000000000000000000000000000000000000000000000000000600052602260045260246000fd5b60006002820490506001821680612e0657607f821691505b602082108103612e1957612e18612dbf565b5b50919050565b7f4552433732313a20617070726f76616c20746f2063757272656e74206f776e6560008201527f7200000000000000000000000000000000000000000000000000000000000000602082015250565b6000612e7b6021836126c7565b9150612e8682612e1f565b604082019050919050565b60006020820190508181036000830152612eaa81612e6e565b9050919050565b7f4552433732313a20617070726f76652063616c6c6572206973206e6f7420746f60008201527f6b656e206f776e6572206e6f7220617070726f76656420666f7220616c6c0000602082015250565b6000612f0d603e836126c7565b9150612f1882612eb1565b604082019050919050565b60006020820190508181036000830152612f3c81612f00565b9050919050565b7f4552433732313a2063616c6c6572206973206e6f7420746f6b656e206f776e6560008201527f72206e6f7220617070726f766564000000000000000000000000000000000000602082015250565b6000612f9f602e836126c7565b9150612faa82612f43565b604082019050919050565b60006020820190508181036000830152612fce81612f92565b9050919050565b7f4552433732313a20696e76616c696420746f6b656e2049440000000000000000600082015250565b600061300b6018836126c7565b915061301682612fd5565b602082019050919050565b6000602082019050818103600083015261303a81612ffe565b9050919050565b7f4552433732313a2061646472657373207a65726f206973206e6f74206120766160008201527f6c6964206f776e65720000000000000000000000000000000000000000000000602082015250565b600061309d6029836126c7565b91506130a882613041565b604082019050919050565b600060208201905081810360008301526130cc81613090565b9050919050565b600081905092915050565b60006130ea83856130d3565b93506130f78385846129a2565b82840190509392505050565b60006131108284866130de565b91508190509392505050565b600082905092915050565b60008190508160005260206000209050919050565b60006020601f8301049050919050565b600082821b905092915050565b6000600883026131897fffffffffffffffffffffffffffffffffffffffffffffffffffffffffffffffff8261314c565b613193868361314c565b95508019841693508086168417925050509392505050565b6000819050919050565b60006131d06131cb6131c68461276e565b6131ab565b61276e565b9050919050565b6000819050919050565b6131ea836131b5565b6131fe6131f6826131d7565b848454613159565b825550505050565b600090565b613213613206565b61321e8184846131e1565b505050565b5b818110156132425761323760008261320b565b600181019050613224565b5050565b601f8211156132875761325881613127565b6132618461313c565b81016020851015613270578190505b61328461327c8561313c565b830182613223565b50505b505050565b600082821c905092915050565b60006132aa6000198460080261328c565b1980831691505092915050565b60006132c38383613299565b9150826002028217905092915050565b6132dd838361311c565b67ffffffffffffffff8111156132f6576132f56128f6565b5b6133008254612dee565b61330b828285613246565b6000601f83116001811461333a5760008415613328578287013590505b61333285826132b7565b86555061339a565b601f19841661334886613127565b60005b828110156133705784890135825560018201915060208501945060208101905061334b565b8683101561338d5784890135613389601f891682613299565b8355505b6001600288020188555050505b50505050505050565b60006133ae826126bc565b6133b881856130d3565b93506133c88185602086016126d8565b80840191505092915050565b60006133e082856133a3565b91506133ec82846133a3565b91508190509392505050565b7f4e6f7420656e6f756768204d6174696320706169640000000000000000000000600082015250565b600061342e6015836126c7565b9150613439826133f8565b602082019050919050565b6000602082019050818103600083015261345d81613421565b9050919050565b7f2e00000000000000000000000000000000000000000000000000000000000000600082015250565b600061349a6001836130d3565b91506134a582613464565b600182019050919050565b600081546134bd81612dee565b6134c781866130d3565b945060018216600081146134e257600181146134f75761352a565b60ff198316865281151582028601935061352a565b61350085613127565b60005b8381101561352257815481890152600182019150602081019050613503565b838801955050505b50505092915050565b60006135408285876130de565b915061354b8261348d565b915061355782846134b0565b9150819050949350505050565b600061357082866134b0565b915061357c82856133a3565b915061358882846134b0565b9150819050949350505050565b7f7b226e616d65223a202200000000000000000000000000000000000000000000600082015250565b60006135cb600a836130d3565b91506135d682613595565b600a82019050919050565b7f222c20226465736372697074696f6e223a20224120646f6d61696e206f6e207460008201527f6865204e696e6a61206e616d652073657276696365222c2022696d616765223a60208201527f2022646174613a696d6167652f7376672b786d6c3b6261736536342c00000000604082015250565b6000613663605c836130d3565b915061366e826135e1565b605c82019050919050565b7f222c226c656e677468223a220000000000000000000000000000000000000000600082015250565b60006136af600c836130d3565b91506136ba82613679565b600c82019050919050565b7f227d000000000000000000000000000000000000000000000000000000000000600082015250565b60006136fb6002836130d3565b9150613706826136c5565b600282019050919050565b600061371c826135be565b915061372882866133a3565b915061373382613656565b915061373f82856133a3565b915061374a826136a2565b915061375682846133a3565b9150613761826136ee565b9150819050949350505050565b7f646174613a696d6167652f7376672b786d6c3b6261736536342c000000000000600082015250565b60006137a4601a836130d3565b91506137af8261376e565b601a82019050919050565b60006137c582613797565b91506137d182846133a3565b915081905092915050565b600060408201905081810360008301526137f68185612713565b9050818103602083015261380a8184612713565b90509392505050565b7f4552433732313a207472616e736665722066726f6d20696e636f72726563742060008201527f6f776e6572000000000000000000000000000000000000000000000000000000602082015250565b600061386f6025836126c7565b915061387a82613813565b604082019050919050565b6000602082019050818103600083015261389e81613862565b9050919050565b7f4552433732313a207472616e7366657220746f20746865207a65726f2061646460008201527f7265737300000000000000000000000000000000000000000000000000000000602082015250565b60006139016024836126c7565b915061390c826138a5565b604082019050919050565b60006020820190508181036000830152613930816138f4565b9050919050565b7f4e487b7100000000000000000000000000000000000000000000000000000000600052601160045260246000fd5b60006139718261276e565b915061397c8361276e565b925082820390508181111561399457613993613937565b5b92915050565b60006139a58261276e565b91506139b08361276e565b92508282019050808211156139c8576139c7613937565b5b92915050565b7f4552433732313a20617070726f766520746f2063616c6c657200000000000000600082015250565b6000613a046019836126c7565b9150613a0f826139ce565b602082019050919050565b60006020820190508181036000830152613a33816139f7565b9050919050565b7f4552433732313a207472616e7366657220746f206e6f6e20455243373231526560008201527f63656976657220696d706c656d656e7465720000000000000000000000000000602082015250565b6000613a966032836126c7565b9150613aa182613a3a565b604082019050919050565b60006020820190508181036000830152613ac581613a89565b9050919050565b7f4e487b7100000000000000000000000000000000000000000000000000000000600052603260045260246000fd5b6000613b068261276e565b91507fffffffffffffffffffffffffffffffffffffffffffffffffffffffffffffffff8203613b3857613b37613937565b5b600182019050919050565b7f4e487b7100000000000000000000000000000000000000000000000000000000600052601260045260246000fd5b6000613b7d8261276e565b9150613b888361276e565b925082613b9857613b97613b43565b5b828204905092915050565b6000613bae8261276e565b9150613bb98361276e565b925082613bc957613bc8613b43565b5b828206905092915050565b60006080820190508181036000830152613bee8187612713565b90508181036020830152613c028186612713565b90508181036040830152613c168185612713565b9050613c256060830184612a97565b95945050505050565b6000613c398261276e565b9150613c448361276e565b9250828202613c528161276e565b91508282048414831517613c6957613c68613937565b5b5092915050565b7f45524337323155524953746f726167653a2055524920736574206f66206e6f6e60008201527f6578697374656e7420746f6b656e000000000000000000000000000000000000602082015250565b6000613ccc602e836126c7565b9150613cd782613c70565b604082019050919050565b60006020820190508181036000830152613cfb81613cbf565b9050919050565b613d0b826126bc565b67ffffffffffffffff811115613d2457613d236128f6565b5b613d2e8254612dee565b613d39828285613246565b600060209050601f831160018114613d6c5760008415613d5a578287015190505b613d6485826132b7565b865550613dcc565b601f198416613d7a86613127565b60005b82811015613da257848901518255600182019150602085019450602081019050613d7d565b86831015613dbf5784890151613dbb601f891682613299565b8355505b6001600288020188555050505b505050505050565b600081519050919050565b600082825260208201905092915050565b6000613dfb82613dd4565b613e058185613ddf565b9350613e158185602086016126d8565b613e1e81612702565b840191505092915050565b6000608082019050613e3e6000830187612803565b613e4b6020830186612803565b613e586040830185612a97565b8181036060830152613e6a8184613df0565b905095945050505050565b600081519050613e848161262d565b92915050565b600060208284031215613ea057613e9f6125f7565b5b6000613eae84828501613e75565b91505092915050565b7f4552433732313a206d696e7420746f20746865207a65726f2061646472657373600082015250565b6000613eed6020836126c7565b9150613ef882613eb7565b602082019050919050565b60006020820190508181036000830152613f1c81613ee0565b9050919050565b7f4552433732313a20746f6b656e20616c7265616479206d696e74656400000000600082015250565b6000613f59601c836126c7565b9150613f6482613f23565b602082019050919050565b60006020820190508181036000830152613f8881613f4c565b905091905056fe0a2d2d2d2d2d2d2d2d2d2d2d2d2d2d2d2d2d2d2d2d2d2d2d2d2d2d2d2d2d2d2d2d2d2d2d2d2d2d2d2d2d2d2d2d2d2d2d2d2d2d2d2d2d2d2d2d5265676973746572696e672025732e2573206f6e2074686520636f6e7472616374207769746820746f6b656e49442025642d2d2d2d2d2d2d2d2d2d2d2d2d2d2d2d2d2d2d2d2d2d2d2d2d2d2d2d2d2d2d2d2d2d2d2d2d2d2d2d2d2d2d2d2d2d2d2d2d2d2d2d2d2d2d2d0a4142434445464748494a4b4c4d4e4f505152535455565758595a6162636465666768696a6b6c6d6e6f707172737475767778797a303132333435363738392b2fa2646970667358221220cfc9bc50b08d9cd0d6de7baf85ad8c0a3624870ab8f8e14b23a1a1cf160414e964736f6c634300081100333c73766720786d6c6e733d22687474703a2f2f7777772e77332e6f72672f323030302f737667222077696474683d2232373022206865696768743d22323730222066696c6c3d226e6f6e65223e3c706174682066696c6c3d2275726c282342292220643d224d302030683237307632373048307a222f3e3c646566733e3c66696c7465722069643d22412220636f6c6f722d696e746572706f6c6174696f6e2d66696c746572733d2273524742222066696c746572556e6974733d227573657253706163654f6e55736522206865696768743d22323730222077696474683d22323730223e3c666544726f70536861646f772064783d2230222064793d22312220737464446576696174696f6e3d22322220666c6f6f642d6f7061636974793d222e323235222077696474683d223230302522206865696768743d2232303025222f3e3c2f66696c7465723e3c2f646566733e3c7061746820643d224d37322e3836332034322e393439632d2e3636382d2e3338372d312e3432362d2e35392d322e3139372d2e3539732d312e3532392e3230342d322e3139372e35396c2d31302e30383120362e3033322d362e383520332e3933342d31302e30383120362e303332632d2e3636382e3338372d312e3432362e35392d322e3139372e3539732d312e3532392d2e3230342d322e3139372d2e35396c2d382e3031332d342e37323161342e353220342e35322030203020312d312e3538392d312e363136632d2e3338342d2e3636352d2e3539342d312e3431382d2e3630382d322e313837762d392e3331632d2e3031332d2e3737352e3138352d312e3533382e3537322d322e32303861342e323520342e323520302030203120312e3632352d312e3539356c372e3838342d342e3539632e3636382d2e33383720312e3432362d2e353920322e3139372d2e353973312e3532392e32303420322e3139372e35396c372e38383420342e353961342e353220342e353220302030203120312e35383920312e363136632e3338342e3636352e35393420312e3431382e36303820322e31383776362e3033326c362e38352d342e303635762d362e303332632e3031332d2e3737352d2e3138352d312e3533382d2e3537322d322e32303861342e323520342e32352030203020302d312e3632352d312e3539354c34312e3435362032342e3539632d2e3636382d2e3338372d312e3432362d2e35392d322e3139372d2e3539732d312e3532392e3230342d322e3139372e35396c2d31342e38363420382e36353561342e323520342e32352030203020302d312e36323520312e353935632d2e3338372e36372d2e35383520312e3433342d2e35373220322e3230387631372e343431632d2e3031332e3737352e31383520312e3533382e35373220322e32303861342e323520342e323520302030203020312e36323520312e3539356c31342e38363420382e363535632e3636382e33383720312e3432362e353920322e3139372e353973312e3532392d2e32303420322e3139372d2e35396c31302e3038312d352e39303120362e38352d342e3036352031302e3038312d352e393031632e3636382d2e33383720312e3432362d2e353920322e3139372d2e353973312e3532392e32303420322e3139372e35396c372e38383420342e353961342e353220342e353220302030203120312e35383920312e363136632e3338342e3636352e35393420312e3431382e36303820322e31383776392e333131632e3031332e3737352d2e31383520312e3533382d2e35373220322e32303861342e323520342e32352030203020312d312e36323520312e3539356c2d372e38383420342e373231632d2e3636382e3338372d312e3432362e35392d322e3139372e3539732d312e3532392d2e3230342d322e3139372d2e35396c2d372e3838342d342e353961342e353220342e35322030203020312d312e3538392d312e363136632d2e3338352d2e3636352d2e3539342d312e3431382d2e3630382d322e313837762d362e3033326c2d362e383520342e30363576362e303332632d2e3031332e3737352e31383520312e3533382e35373220322e32303861342e323520342e323520302030203020312e36323520312e3539356c31342e38363420382e363535632e3636382e33383720312e3432362e353920322e3139372e353973312e3532392d2e32303420322e3139372d2e35396c31342e3836342d382e363535632e3635372d2e33393420312e3230342d2e393520312e3538392d312e363136732e3539342d312e3431382e3630392d322e3138375635352e353338632e3031332d2e3737352d2e3138352d312e3533382d2e3537322d322e32303861342e323520342e32352030203020302d312e3632352d312e3539356c2d31342e3939332d382e3738367a222066696c6c3d2223666666222f3e3c646566733e3c6c696e6561724772616469656e742069643d2242222078313d2230222079313d2230222078323d22323730222079323d2232373022206772616469656e74556e6974733d227573657253706163654f6e557365223e3c73746f702073746f702d636f6c6f723d2223636235656565222f3e3c73746f70206f66667365743d2231222073746f702d636f6c6f723d2223306364376534222073746f702d6f7061636974793d222e3939222f3e3c2f6c696e6561724772616469656e743e3c2f646566733e3c7465787420783d2233322e352220793d223233312220666f6e742d73697a653d223237222066696c6c3d2223666666222066696c7465723d2275726c282341292220666f6e742d66616d696c793d22506c7573204a616b617274612053616e732c44656a6156752053616e732c4e6f746f20436f6c6f7220456d6f6a692c4170706c6520436f6c6f7220456d6f6a692c73616e732d73657269662220666f6e742d7765696768743d22626f6c64223e",
  "linkReferences": {},
  "deployedLinkReferences": {}
}